:020000040800F2
:10000000A0040020A10100085712000811120008E6
:1000100055120008A10C000825200008000000006F
:1000200000000000000000000000000001170008B0
:10003000B501000800000000DD150008F91D0008EA
:10004000BB010008BB010008BB010008BB010008A0
:10005000BB010008BB010008BB010008BB01000890
:10006000BB010008BB010008BB010008BB01000880
:10007000BB010008BB010008BB010008BB01000870
:10008000BB010008BB010008BB010008BB01000860
:10009000BB010008BB010008BB010008CD0F000830
:1000A000BB010008BB010008BB010008BB01000840
:1000B000BB010008BB010008BB010008BB01000830
:1000C000BB010008BB010008BB010008BB01000820
:1000D000BB010008BB010008591E0008BB01000855
:1000E000BB010008BB010008BB010008BB01000800
:1000F000BB010008BB010008BB010008BB010008F0
:10010000BB010008BB010008BB010008BB010008DF
:10011000BB010008BB010008BB010008BB010008CF
:10012000BB010008BB010008BB010008BB010008BF
:10013000BB010008BB010008BB010008BB010008AF
:10014000BB010008BB010008BB010008BB0100089F
:10015000BB010008BB010008BB010008BB0100088F
:10016000BB010008BB010008BB010008BB0100087F
:10017000BB010008BB010008BB010008BB0100086F
:10018000BB010008BB010008DFF810D000F02CF91B
:100190000048004765240008AFF30080A004002059
:1001A0000648804706480047FEE7FEE7FEE7FEE711
:1001B000FEE7FEE7FEE7FEE7FEE7FEE7FD1D0008BF
:1001C00089010008D2B201E000F8012B491EFBD2E0
:1001D00070470022F6E710B513460A460446194652
:1001E000FFF7F0FF204610BD0FB400B589B00BA893
:1001F00000906A4603480A9900F0ECF809B05DF8EF
:1002000014FB0000280000202DE9FF5F1D464FF081
:10021000FF3BD5E9014691465F464FF00008A969CA
:100220007F1C01988847296A824688470028F6D1B2
:10023000BAF1FF3F0CD024F4C064002E19DD600633
:1002400014D5BAF12B0F09D0BAF12D0F0ED103E05E
:10025000584604B0BDE8F09F44F48064A9697F1C4F
:1002600001988847761E8246002E02DDBAF1300FD3
:1002700003D0B9F1000F26D032E0A969761E44F40C
:1002800000747F1C019888478246002E05DDBAF174
:10029000780F06D0BAF1580F03D0B9F1000F10D083
:1002A0001EE0B9F1000F02D0B9F1100F18D1A96901
:1002B000761E24F400747F1C019888478246102023
:1002C00002E0082000E00A20814609E008FB090856
:1002D000A969761E44F400747F1C01988847824601
:1002E000002E05DD4946504600F065F80028EDDA9D
:1002F000E96901988847A00502D46FF00100A8E7DA
:10030000E00725D1600613D5600502D5C8F10000CD
:1003100000E0404629680A1D2A600968220501D5C7
:10032000087015E0220701D5088011E008600FE091
:100330002868011D29600068210502D580F8008029
:1003400006E0210702D5A0F8008001E0C0F8008097
:1003500038467EE72DE9F05F0546002092469B4631
:1003600088460646814640241BE0284641464746CB
:10037000224600F070F853465A46C01A914110D3F5
:1003800011461846224600F057F82D1A67EB01086F
:100390004F4622460120002100F04EF817EB0009DD
:1003A0004E41201EA4F10104DFDC484631462A46B6
:1003B0004346BDE8F09F3A2800D2303820F02002B2
:1003C000412A01D3A2F13700884201D34FF0FF3018
:1003D00070470000024B9361024BD36100F052B8AA
:1003E0002124000829040008064C074D06E0E068B7
:1003F00040F0010394E8070098471034AC42F6D36C
:10040000FFF7C6FEF825000818260008094910B5B0
:1004100008784C1C18B1401E0870205C10BD0021EB
:100420000720ABBE207010BD02490878421C0A703C
:100430007047000030000020202A04DB203A00FA38
:1004400002F1002070479140C2F1200320FA03F32B
:10045000194390407047202A04DB203A21FA02F029
:100460000021704721FA02F3D040C2F120029140EE
:100470000843194670470000026811441378016070
:1004800018467047D1600449516104491162002146
:100490001161114600F00AB879040008A1040008AF
:1004A000C0B24FF4F05100F099B900002DE9F34FBC
:1004B0008BB04FF0000801F10C000C464FF0010B1F
:1004C00046460DF1080A01906269012101989047A2
:1004D000051E2DD0252D2CD0216A8847C0B1626918
:1004E000012101989047216A88470028F7D1411ED1
:1004F00062690198904700E0761CA1690B988847D3
:10050000216A88470028F7D1E1690B988847DBE723
:10051000A1690B9888470746A84201D1761CD3E70A
:10052000E1690B9888477F1C02D1B8F1000F6FD0AA
:1005300047E1002762693D463946019890472A28DD
:1005400004D162690121019890470125DFF8889262
:100550006269012101989047A0F130010A290AD26D
:100560004F45E5DC07EB870100EB4107303FDFD467
:1005700045F01005ECE7E90601D46FF000476C2860
:100580000AD04C2814D0682815D06A280DD07428B9
:100590001CD07A281AD01DE0626901210198904789
:1005A0006C2802D045F0040514E045F002050DE08A
:1005B00045F020050AE0626901210198904768280A
:1005C00002D045F0080505E045F4006562690121A7
:1005D00001989047C4E9015765283DD019DC582897
:1005E0007AD00CDC452837D004DC252826D04128D9
:1005F00031D131E046282FD047282CD12CE05B2880
:1006000077D0612828D063287CD0642823D15AE091
:10061000D1E06F2848D008DC66281DD067281BD0A1
:10062000692821D06E2816D127E0702845D073287C
:1006300068D0752847D078280DD14DE0A1690B9876
:100640008847054625283FF469AFE1690B9888473C
:100650006D1C3FF46AAFB4E023466A466FF00100B8
:100660000B99AFF300809FE045F040006060A80761
:1006700023464FF0000236D43EE0E8077FF447AF50
:100680002068011D21600068290501D506701BE75F
:10069000290701D5068017E7A90703D5F117C0E997
:1006A000006111E706600FE745F040006060A807B1
:1006B00023464FF0080216D41EE040F60E0125EA4C
:1006C0000100606016E045F040006060A807234626
:1006D0004FF00A0207D40FE045F040006060A80721
:1006E00008D5234610226FF001000B99AFF300806C
:1006F0005AE007E0234610226FF001000B99FFF744
:1007000083FD51E04FF000094F464B46632802D06D
:100710005B2807D041E02079C00601D40120A06009
:1007200001273AE062690121019890475E2805D1CE
:100730004FF001096269494601989047216939B92A
:1007400000210A46534643F82120491C0829FADBB8
:10075000B0B3216969B9C11700EBD16253110AEB3B
:10076000830122F01F02821A01200B68904003438C
:100770000B6062690121019890475D28E8D1B9F1C9
:10078000000F09D00020514651F82020D24341F8F3
:100790002020401C0828F7DB02AB224600976FF0B0
:1007A00001000B99AFF3008000280CDA401C08D13F
:1007B000BBF1000F05D04FF0FF300DB0BDE8F08F5A
:1007C000FFE74046F9E7E90701D108F101080644CF
:1007D0004FF0000B78E60000CCCCCC0C7F2801D980
:1007E000002208E0064A02EB5002C007127800D14E
:1007F000120902F00F0201209040084070470000EB
:10080000D424000870B588B00121022000F0E8FE71
:100810000121880300F000FF0121084600F0E0FEFE
:100820000121480400F0EAFE00F016FD4FF4807547
:10083000069500248DF81C408DF81F4006A92E480F
:1008400000F098FC0821012000F05CFF04958DF871
:10085000144010208DF8150001258DF8165004A8BD
:1008600000F0DAFB8DF81E408DF81F5002258DF840
:100870001D508DF81C5004200690204E06A93046CD
:1008800000F078FC8DF81C500821069106A930462E
:1008900000F070FC07220321304600F0A9FC07227B
:1008A0000221304600F0A4FC4FF461400090ADF806
:1008B0000440ADF80640ADF80840ADF80C400C20FF
:1008C000ADF80A000E4C6946204601F045FB00F0E9
:1008D000C3FC012240F22551204601F022FB0122F7
:1008E00040F22441204601F01CFB0121204601F08A
:1008F000E5FA08B070BD0000000C024000000240A4
:100900000044004010B5EF2000F01AF8012000F07C
:1009100017F80A4C2068000E00F012F82068C0F3A7
:10092000074000F00DF82088C0F3072000F008F819
:100930002078BDE8104000F003B80000240000203B
:1009400010B5064C0146204601F068FB8021204688
:1009500001F0C0FA0028F9D010BD000000440040AA
:1009600038B500242546052D77D2DFE805F00328A9
:1009700040556400641CA4B23FA001F073FB00F07A
:1009800071FD10B100F048FF67E0012000F04DFD5F
:1009900010B100F041FF60E043A001F063FB6B4643
:1009A000F0220021012000F07BFD10B10024012580
:1009B00053E0BDF8001046A001F054FB38BD641CA4
:1009C000A4B250A001F04EFB00F04CFD10B100F0BD
:1009D00023FF42E0022000F028FD10B100F01CFFD0
:1009E0003BE056A001F03EFB0024022535E05DA06F
:1009F00001F038FB00F098FD054645B164A001F018
:100A000031FB284600F008FF0024002525E06DA0FA
:100A100001F028FB032520E075A001F023FB00F086
:100A20009CFD18B1002500F0F7FE16E07AA001F059
:100A300019FB042511E0834801F014FB00F07AFB58
:100A400080B20090F028F6D2BDF80010022000F02D
:100A50009DFD68B1002500F0DFFE4FF47A7001F0D3
:100A6000AFF9042C7FF47FAF77A001F0FBFA38BD1B
:100A70007FA001F0F7FA38BD3C3C2D4153363038A9
:100A80002D494E464F2D3E3E202A2A2A2A2A2AC385
:100A9000FCC1EEA3BAC7EBB0B4CAD6D6B82A2A2A8C
:100AA0002A2A2A0D0A0A00003C3C2D4153363038D0
:100AB0002D494E464F2D3E3E20CAE4C8EBD6B8CE57
:100AC000C631D5FDB3A3A3A1A3A1A3A10D0A0A001A
:100AD0003C3C2D41533630382D494E464F2D3E3E3D
:100AE00020D6B8CEC6D2D1B4E6D4DAA3ACD6B8CE2E
:100AF000C64944A3BA2564A3A1A3A1A3A10D0A0DCD
:100B00000A0A00003C3C2D41533630382D494E46F0
:100B10004F2D3E3E202A2A2A2A2A2AC3FCC1EEA3B0
:100B2000BAC7EBD4D9B0B4D2BBB4CECAD6D6B82AE1
:100B30002A2A2A2A2A0D0A0A000000003C3C2D41DC
:100B4000533630382D494E464F2D3E3E20CAE4C81C
:100B5000EBD6B8CEC632D5FDB3A3A3A1A3A1A3A162
:100B60000D0A0A003C3C2D41533630382D494E4683
:100B70004F2D3E3E20D5FDD4DAB6D4B1C8C1BDB4A8
:100B8000CECAE4C8EBB5C4D6B8CEC60D0A0A00007A
:100B90003C3C2D41533630382D494E464F2D3E3E7C
:100BA00020B6D4B1C8CAA7B0DCA3ACC7EBD6D8D0A6
:100BB000C2C2BCC8EBD6B8CEC6A3A1A3A1A3A10D47
:100BC0000A0A00003C3C2D41533630382D494E4630
:100BD0004F2D3E3E20CAE4C8EBD6B8CEC6B6D4B13F
:100BE000C8B3C9B9A6A3A1A3A1A3A10D0A0A000075
:100BF0003C3C2D41533630382D494E464F2D3E3E1C
:100C000020D5FDD4DAC9FAB3C9D6B8CEC6C4A3BFBD
:100C1000E90D0A0A000000003C3C2D4153363038F3
:100C20002D494E464F2D3E3E20C9FAB3C9D6B8CE07
:100C3000C6C4A3BFE9B3C9B9A6A3A1A3A1A3A10D2B
:100C40000A0A0000142500083C3C2D415336303878
:100C50002D494E464F2D3E3E20C2BCD6B8CEC6CA08
:100C6000A7B0DCA3A10D0A0D0A0D0A0A00000000BE
:100C70003C3C2D41533630382D494E464F2D3E3E9B
:100C800020C2BCC8EBD6B8CEC6C4A3BFE9B3C9B9AD
:100C9000A6A3A1A3A1A3A10D0A0D0A0A00000000AA
:100CA000FEE7000010B507A001F0DCF900F0A4FB9E
:100CB00018B1BDE8104000F0AFBDBDE8104009A07C
:100CC00001F0D0B93C3C2D41533630382D494E46C9
:100CD0004F2D3E3E20C7E5BFD5D6B8CEC6BFE20DEC
:100CE0000A0A00003C3C2D41533630382D494E460F
:100CF0004F2D3E3E20C7E5BFD5D6B8CEC6BFE2B326
:100D0000C9B9A6A3A1A3A1A3A10D0A0D0A0A0000B7
:100D100008B50020009010A001F0A4F900F0A2FB9B
:100D200010B100F079FD08BD012000F07EFB10B18C
:100D300000F072FD08BD6B46F0220021012000F09A
:100D4000AFFB10B100F068FD08BDBDF8001011A0A8
:100D500001F088F908BD00003C3C2D415336303885
:100D60002D494E464F2D3E3E202A2A2A2A2A2AC3A2
:100D7000FCC1EEA3BAB6D4B1C8D6B8CEC6A3ACC730
:100D8000EBB0B4CAD6D6B82A2A2A2A2A2A0D0A0AC9
:100D9000000000003C3C2D41533630382D494E4672
:100DA0004F2D3E3E20B6D4B1C8D6B8CEC6B3C9B9D1
:100DB000A6A3ACD6B8CEC64944A3BA2564A3A1A3C2
:100DC000A1A3A10D0A0D0A0A0000000010B50BA195
:100DD000104801F034F910A001F044F91A4800F06D
:100DE00097FA20B1BDE8104018A001F03BB925A04A
:100DF00001F038F9BDE8104000F032BFD5E2CAC7B3
:100E0000D2BBB8F6D6B8CEC6C4A3BFE9CAB5D1E93D
:100E10000D0A0000001001403C3C2D415336303893
:100E20002D494E464F2D3E3E20BBB6D3ADCAB9D359
:100E3000C3D2B0BBF053544D3332BFAAB7A2B0E512
:100E40000D0A0D0A0A000000240000203C3C2D4140
:100E5000533630382D494E464F2D3E3E20CEB4BC41
:100E6000ECB2E2B5BDD6B8CEC6C4A3BFE9A3ACC749
:100E7000EBBCECB2E9C1ACBDD3A3A1A3A1A3A10D6E
:100E80000A0A00003C3C2D41533630382D494E466D
:100E90004F2D3E3E20CDA8D1B6B3C9B9A60D0A0A42
:100EA0000000000070B586B00121084600F098FBF4
:100EB0000121102000F0B0FB00248DF81640012025
:100EC0008DF8170002258DF815508DF8145040024A
:100ED0000490184E04A9304600F04CF98DF81450D7
:100EE0006902049104A9304600F044F907220A215E
:100EF000304600F07DF907220921304600F078F9EC
:100F00004FF4E1300090ADF80440ADF80640ADF884
:100F10000840ADF80C400C20ADF80A00064C6946BC
:100F2000204601F019F80121204600F0C7FF06B065
:100F300070BD0000000002400010014010B50CA080
:100F400001F090F8134801F08DF800F0F3F8F02864
:100F5000F8D280B2012100F021FA18B1BDE81040AA
:100F600000F05ABCBDE810400BA001F07BB80000B7
:100F70003C3C2D41533630382D494E464F2D3E3E98
:100F800020C9BEB3FDD6B8B6A8D3C3BBA749440D8C
:100F90000A0A0000142500083C3C2D415336303825
:100FA0002D494E464F2D3E3E20C9BEB3FDD6B8B6A4
:100FB000A8D3C3BBA7D6B8CEC6B3C9B9A6A3A1A3AD
:100FC000A1A3A10D0A0D0A0A0000000010B54FF4FC
:100FD0008074204600F016F8002809D00548016802
:100FE00081F0400101602046BDE8104000F004B8E7
:100FF00010BD000014140240014908607047000051
:10100000143C014001460020024A12680A4200D006
:1010100001207047143C014030B51B4A83790168B8
:10102000002B2AD013688B431360111D0B680468D2
:10103000A3430B60017911440B68046823430B60E0
:10104000114C08342168036899432160231D1968F5
:101050000568A94319604179102905D011440A682F
:10106000006802430A6030BD2168026811432160B4
:10107000196800680143196030BD007910440268A6
:101080008A43026030BD0000003C014008B569465B
:1010900014A0FFF7A9F814A0009900F0E3FF00984E
:1010A00001280BD002280ED0032811D0042814D018
:1010B00016A000F0D7FF00F0D3FD08BDFFF750FCED
:1010C00000F0CEFD08BDFFF723FE00F0C9FD08BD0E
:1010D000FFF734FF00F0C4FD08BDFFF7E3FD00F0AB
:1010E000BFFD08BD256400003C3C2D41533630381F
:1010F0002D494E464F2D3E3E20BDD3CAD5B5BDD756
:10110000D6B7FBA3BA25640D0A0A00003C3C2D416A
:10111000533630382D494E464F2D3E3E20C7EBCA40
:10112000E4C8EBBACFB7A8D6B8C1EEA3A10D0A0D9B
:101130000A0A000008B5694604A0FFF755F804A0A4
:10114000009900F08FFF009808BD000025640000A2
:101150003C3C2D41533630382D494E464F2D3E3EB6
:1011600020CAE4C8EBB5C449443A6E756D3D2564A8
:101170000D0A0A002DE9F041002201274FF0030C6F
:1011800007FA02F50B682B40AB422CD106685300DE
:101190000CFA03F4A64306600E79D0F800809E4056
:1011A00046EA080606600E79012E01D0022E12D101
:1011B0008668A64386604E79D0F808809E4046EA4D
:1011C000080686604668AE43466045688E7996405C
:1011D000B6B235434560C568A543C560CC799C402F
:1011E000C3681C43C460521C102AC9D3BDE8F081F7
:1011F00010B54B07DB0E9A40C90800EB8100016A6D
:101200000F249C40A1430162016A1143016210BD99
:10121000FEE700001CB50121202000F0E1F9402488
:10122000009401218DF8041000208DF806008DF83F
:1012300007108DF8050069460548FFF79BFF044835
:101240001830048080210180811501801CBD0000C0
:1012500000140240FEE7704738B54FF4A06000F07C
:101260004DF826208DF8000001248DF801408DF8FE
:1012700002408DF80340684600F00CF817208DF806
:1012800000008DF8014002208DF80200684600F051
:1012900001F838BD30B50F23C27801250178002A46
:1012A0001FD0154A126802F4E062C2F5E062C2F390
:1012B0000722C2F10404D3404278A24084781C4043
:1012C0001443220101F1E02181F80024007800F0AC
:1012D0001F018D404009800000F1E020C0F800515E
:1012E00030BD01F01F0085404809800000F1E0207A
:1012F000C0F8805130BD00000CED00E00249084309
:1013000002490860704700000000FA050CED00E09B
:1013100008B5FFF7F7FA0120FFF712FB0020FFF7EF
:101320000FFB0020FFF70CFB642000F049FD0E4886
:1013300001F037F8B0B100680178EF290DD141789C
:1013400001290AD18179072907D1417900910379CF
:10135000C278817805A000F085FE034801F039F8D5
:10136000002008BD012008BD440000203C3C2D4168
:10137000533630382D494E464F2D3E3E20D6B8CEFE
:10138000C6C4A3BFE9B5C4B5D8D6B7CEAA3A30789B
:1013900025782578257825780D0A0A0038B5044681
:1013A0000D4600200090FFF7ADFA012000F0CAF9C9
:1013B000072000F0C9F90C2000F0D0F9200AFFF74F
:1013C000BFFAE0B2FFF7BCFA280AFFF7B9FAE8B2B1
:1013D000FFF7B6FAE0B200EB142000EB1520E9B2FB
:1013E0000844143000F0A4F94FF4C87000F0E8FC91
:1013F000684600F071F938BD08B500200090FFF78D
:1014000081FA012000F09EF9032000F09DF90D20E3
:1014100000F0A4F9112000F08BF94FF4C87000F02F
:10142000CFFC684600F058F908BD38B504460021E5
:101430000091FFF767FA012000F084F9042000F022
:1014400083F9022000F08AF92046FFF779FAE01DBF
:1014500000F06EF94FF4FA7000F0B2FC684600F04C
:101460003BF938BD08B50020009040F6B83000F0D8
:10147000A7FCFFF747FA012000F064F9032000F011
:1014800063F9012000F06AF9052000F051F94FF4EA
:10149000FA7000F095FC684600F01EF908BD0000E7
:1014A0002DE9F04107460C4615461E46FFF72AFA7D
:1014B000012000F047F9082000F046F91B2000F059
:1014C0004DF93846FFF73CFA200AFFF739FAE0B247
:1014D000FFF736FA280AFFF733FAE8B2FFF730FAD7
:1014E00007EB1420E1B2084400EB1520E9B20844F0
:1014F000243000F01DF94FF4FA7000F061FC094847
:1015000000F04FFF60B101684C7AC87A897A00EB2D
:1015100001203080034800F05CFF2046BDE8F081E8
:10152000FF20FBE74400002008B500200090FFF7F3
:10153000E9F9012000F006F9032000F005F9032085
:1015400000F00CF9072000F0F3F84FF4FA7000F007
:1015500037FC684600F0C0F808BD08B500200090D0
:10156000FFF7D0F9012000F0EDF8032000F0ECF8CF
:10157000052000F0F3F8092000F0DAF84FF4FA70D3
:1015800000F01EFC684600F0A7F808BD38B5054617
:101590000C4600200090FFF7B5F9012000F0D2F8CA
:1015A000062000F0D1F8062000F0D8F82846FFF712
:1015B000C7F9200AFFF7C4F9E0B2FFF7C1F905EB5C
:1015C0001420E1B208440D3000F0B2F84FF4FA7084
:1015D00000F0F6FB684600F07FF838BD7047000069
:1015E000054A002903D01168014311607047116852
:1015F000814311607047000030380240054A0029DD
:1016000003D0116801431160704711688143116074
:101610007047000040380240054A002903D0116895
:1016200001431160704711688143116070470000E9
:101630004438024070B5244B196801F00C01234C6A
:1016400000291ED0224E04291DD008291DD0046077
:10165000196801F0F00109091E4A545C0168E14073
:1016600041601C6804F4E054A40A145D21FA04F4F7
:1016700084601B6803F460435B0BD25CD140C160A3
:1016800070BD0460E4E70660E2E70F4A121F1168CC
:10169000C1F38055116801F03F0135B1B6FBF1F19E
:1016A0001468C4F38814614305E0B4FBF1F11468D5
:1016B000C4F3881461431268C2F30142521C520001
:1016C000B1FBF2F10160C3E7083802400024F400E6
:1016D00040787D011400002010B50446074800F052
:1016E00060FE38B10068407A2080044800F071FE46
:1016F000208810BDFF20208010BD00004400002085
:101700007047000010B58A07120F0F23934021F095
:1017100003040649214401F608010C689C430C604F
:101720000B68904003430B6010BD00000030014087
:1017300010B50446200AFFF703F9E0B2BDE81040F7
:10174000FFF7FEB8FFF7FCB810B50446200AFFF714
:10175000F7F8E0B2BDE81040FFF7F2B8FFF7F0B8D5
:101760000CB50022019200922749086840F48030AD
:1017700008604FF4A043086800F40030009001981E
:10178000401C0190009810B901989842F3D1086864
:10179000800302D50120009000E00092009801280B
:1017A00031D119484030026842F080520260174837
:1017B000026842F440420260134808300268026046
:1017C000026842F400420260026842F4A0520260E1
:1017D000021F0F4B13600A6842F080720A600A68A9
:1017E0009201FCD50B4A40F205711160016821F0AD
:1017F00003010160016841F0020101600168C1F369
:1018000081010229FAD10CBD00380240007000406D
:1018100019544007003C0240212854D2DFE800F070
:101820001114171A1D202326292C2F3253535353DA
:1018300035385353533B53533E4144474A53534D1A
:10184000500022A000F00EBC26A000F00BBC2EA081
:1018500000F008BC38A000F005BC41A000F002BCBC
:101860004DA000F0FFBB5AA000F0FCBB644800F0A4
:10187000F9BB64A000F0F6BB6BA000F0F3BB79A04D
:1018800000F0F0BB80A000F0EDBB8DA000F0EABB43
:1018900094A000F0E7BB9CA000F0E4BBA8A000F07F
:1018A000E1BBB0A000F0DEBBB6A000F0DBBBBEA089
:1018B00000F0D8BBC6A000F0D5BBCFA000F0D2BBD3
:1018C000D5A000F0CFBBDCA000F0CCBB3C3C2D4150
:1018D000533630382D494E464F2D3E3E204F4B0D4E
:1018E0000A0A00003C3C2D41533630382D494E4603
:1018F0004F2D3E3E20CAFDBEDDB0FCBDD3CAD5B4DF
:10190000EDCEF30D0A0A00003C3C2D415336303831
:101910002D494E464F2D3E3E20D6B8CEC6C4A3BF5D
:10192000E9C3BBD3D0BCECB2E2B5BDD6B8CEC6A33A
:10193000A10D0A0A000000003C3C2D41533630380E
:101940002D494E464F2D3E3E20C2BCC8EBD6B8CEE8
:10195000C6CDBCCFF1CAA7B0DC0D0A0D0A0A000043
:101960003C3C2D41533630382D494E464F2D3E3E9E
:1019700020D6B8CEC6CDBCCFF1CCABB8C9A1A2CCD5
:10198000ABB5ADB6F8C9FAB2BBB3C9CCD8D5F70D73
:101990000A0D0A0A000000003C3C2D415336303845
:1019A0002D494E464F2D3E3E20D6B8CEC6CDBCCF9B
:1019B000F1CCABCAAAA1A2CCABBAFDB6F8C9FAB2B7
:1019C000BBB3C9CCD8D5F70D0A0D0A0A0000000038
:1019D0003C3C2D41533630382D494E464F2D3E3E2E
:1019E00020D6B8CEC6CDBCCFF1CCABC2D2B6F8C9EA
:1019F000FAB2BBB3C9CCD8D5F70D0A0D0A0A00005C
:101A0000AC2500083C3C2D41533630382D494E461C
:101A10004F2D3E3E20D6B8CEC6B2BBC6A5C5E40DFE
:101A20000A0D0A0A000000003C3C2D4153363038B4
:101A30002D494E464F2D3E3E20B6D4B1C8D6B8CE25
:101A4000C6CAA7B0DCA3ACD6B8CEC6BFE2B2BBB4A0
:101A5000E6D4DAB4CBD6B8CEC6A3A10D0A0D0A0AD5
:101A6000000000003C3C2D41533630382D494E4695
:101A70004F2D3E3E20CCD8D5F7BACFB2A2CAA7B0E0
:101A8000DC0D0A0A000000003C3C2D415336303882
:101A90002D494E464F2D3E3E20B7C3CECAD6B8CEB6
:101AA000C6BFE2CAB1B5D8D6B7D0F2BAC5B3ACB3E7
:101AB000F6D6B8CEC6BFE2B7B6CEA70D0A0A00006A
:101AC0003C3C2D41533630382D494E464F2D3E3E3D
:101AD00020C9BEB3FDC4A3B0E5CAA7B0DC0D0A0A95
:101AE000000000003C3C2D41533630382D494E4615
:101AF0004F2D3E3E20C7E5BFD5D6B8CEC6BFE2CA01
:101B0000A7B0DC0D0A0A00003C3C2D4153363038AA
:101B10002D494E464F2D3E3E20BBBAB3E5C7F8C413
:101B2000DAC3BBD3D0D3D0D0A7D4ADCABCCDBCB65A
:101B3000F8C9FAB2BBB3C9CDBCCFF10D0A0A000097
:101B40003C3C2D41533630382D494E464F2D3E3EBC
:101B500020B6C1D0B420464C41534820B3F6B4ED72
:101B60000D0A0A003C3C2D41533630382D494E4673
:101B70004F2D3E3E20CEB4B6A8D2E5B4EDCEF30D47
:101B80000A0A00003C3C2D41533630382D494E4660
:101B90004F2D3E3E20CEDED0A7BCC4B4E6C6F7BA79
:101BA000C50D0A0A000000003C3C2D415336303878
:101BB0002D494E464F2D3E3E20BCC4B4E6C6F7C963
:101BC000E8B6A8C4DAC8DDB4EDCEF30D0A0A000009
:101BD0003C3C2D41533630382D494E464F2D3E3E2C
:101BE00020BCC7CAC2B1BED2B3C2EBD6B8B6A8B485
:101BF000EDCEF30D0A0A00003C3C2D41533630383F
:101C00002D494E464F2D3E3E20D6B8CEC6BFE2C22D
:101C1000FA0D0A0A000000003C3C2D4153363038D2
:101C20002D494E464F2D3E3E20B5D8D6B7B4EDCE09
:101C3000F30D0A0A000000003C3C2D4153363038B9
:101C40002D494E464F2D3E3E20C4A3BFE9B7B5BB3C
:101C5000D8C8B7C8CFC2EBD3D0CEF30D0A0A000064
:101C600010B50A4800F0FEF909A000F0FBF914A035
:101C700000F0F8F91FA000F0F5F92BA000F0F2F940
:101C8000BDE8104037A000F0EDB90000582500086D
:101C90003C3C2D41533630382D494E464F2D3E3E6B
:101CA00020202020D6B8C1EE2020202D2D2D2D2D36
:101CB0002D202020202020B9A6C4DC200D0A0A00F7
:101CC0003C3C2D41533630382D494E464F2D3E3E3B
:101CD00020202020203120202020202D2D2D2D2DB2
:101CE0002D20202020CCEDBCD3D6B8CEC6200D0AA6
:101CF0000A0000003C3C2D41533630382D494E46F9
:101D00004F2D3E3E20202020203220202020202D3C
:101D10002D2D2D2D2D20202020B6D4B1C8D6B8CE03
:101D2000C6200D0A0A0000003C3C2D4153363038D5
:101D30002D494E464F2D3E3E20202020203320208E
:101D40002020202D2D2D2D2D2D20202020C9BEB36B
:101D5000FDD6B8B6A8D3C3BBA7D6B8CEC60D0A0A5F
:101D6000000000003C3C2D41533630382D494E4692
:101D70004F2D3E3E20202020203420202020202DCA
:101D80002D2D2D2D2D20202020C7E5BFD5D6B8CE56
:101D9000C6BFE20D0A0A0000401EB0F1807F01D3E9
:101DA000012070474FF0E0214861044AF020107094
:101DB00000208861072008610020704723ED00E0C3
:101DC00001B50C484FF47A710068B0FBF1F0FFF7F1
:101DD000E3FF00204FF0E02103E00A69D203FCD5C5
:101DE000401C009A9042F8D3086920F00100086175
:101DF00008BD0000000000207047000010B5124828
:101E0000016841F4700101601048016841F001016E
:101E100001600E4A00210832116002680C4B1A4022
:101E20000260031D0B4A1A60026822F480220260DD
:101E300006480C300160FFF793FC03494FF0006047
:101E40008039086010BD000088ED00E000380240D5
:101E5000FFFFF6FE1030002470B5164D40F22551FC
:101E6000284600F03EF8A0B1284600F0D3F8C4B2EE
:101E7000114800F0BAFA00281AD0828801688C5400
:101E80008188491C89B281801E2902D30A4800F04A
:101E9000C4FA40F22441284600F023F8012807D173
:101EA000054800F0BAFA2846BDE8704000F0B2B824
:101EB00070BD00000044004044000020002904D010
:101EC000818941F4005181817047818921F4005159
:101ED000818170470246002012880A4200D001200A
:101EE000704770B5002440F66A12C1F3421301F046
:101EF0001F05012606FA05F2012B0CD0022B0DD08E
:101F0000838A1340090A8E40008830400BB100B12B
:101F10000124204670BD83891340F3E7038A1340F0
:101F2000F0E710B540F66A13C1F3421301F01F0445
:101F30000121A140012B07D0022B07D014303AB168
:101F400002680A43026010BD0C30F8E71030F6E773
:101F500002688A43026010BD7FB504460D46208AA0
:101F600020F44051E88808432082A08941F20C61A6
:101F70008843A9882A8911436A8902431143A181B0
:101F8000A08A20F44071A8890843A0826846FFF720
:101F900051FB1E48844202D01D48844201D103985F
:101FA00000E00298A189090408D500EBC00101EB0B
:101FB000001029684900B0FBF1F007E000EBC00118
:101FC00001EB001029688900B0FBF1F06422B0FB3E
:101FD000F2F109010B096FF018056B4300EB830068
:101FE000A3891D044FF0320307D503EBC000B0FBFB
:101FF000F2F000F00700084306E003EB0010B0FB2E
:10200000F2F000F00F00084320817FBD0010014076
:10201000001401408088C0F308007047C1F3080134
:1020200081807047FEE710B504462046FFF7F6FFB3
:1020300080212046FFF74EFF0028F9D010BD70B573
:1020400006460D4600243046295DFFF7ECFF641C70
:10205000285D0028F7D140213046FFF73BFF0028DC
:10206000F9D070BD0FB4054B10B503A9044A02980E
:1020700000F018F810BC5DF814FB000041240008C3
:102080002C00002002E008C8121F08C1002AFAD163
:1020900070477047002001E001C1121F002AFBD1E8
:1020A000704700002DE9FF4F8DB09B460F46044658
:1020B000002606E025280BD05A460F999047641C4D
:1020C000761C20780028F5D111B03046BDE8F08F9D
:1020D0000025A8460122984900E0054314F8013F75
:1020E000203B02FA03F00842F7D120782E2817D1BE
:1020F00014F8010F45F004052A280ED06FF02F02C6
:102100002078A0F1300109290AD808EB880102EBF8
:10211000410100EB0108641CF2E757F8048B641CD2
:1021200020786C280DD004DC4C2812D06A2811D1FC
:1021300004E074280DD07A280CD10AE045F400158B
:1021400007E0617845F48015814202D1641C05F5F1
:102150008015641C2078692844D008DC0028B3D09E
:10216000582867D063280FD0642808D13AE0702837
:1021700065D0732812D075285AD078285AD05A467C
:102180000F999047761CD5E017F8040B8DF80000E6
:1021900000208DF80100E946012003E057F8049B78
:1021A0004FF0FF3069074FF0000501D40AE06D1CC5
:1021B00045450DDA8542FADB19F805100029F6D1FC
:1021C00006E06D1C8542FCDB19F805100029F8D1EA
:1021D0002E4404E019F8010B5A460F9990476D1EE2
:1021E000F8D2A7E00A200021CDE90801C5F302508A
:1021F00002280CD001CFC117021E71F100020CDAC7
:102200000023D0EB030063EB01012D2208E0FF1D4A
:1022100027F00707F7E80201EEE72A0504D52B228D
:102220008DF8282001223CE0EA073AD02022F7E787
:102230000A2000E010200021CDE9080107E010206D
:10224000002145F00405CDE908014FF00808C5F369
:102250000250022810D001CF00214FF0000A2A07B7
:1022600020D52278702A0DD0DDE908C38CF0100C3F
:102270005CEA030C0CD015E0FF1D27F00707F7E818
:102280000201EAE740228DF828204FF0010A0CE015
:1022900050EA010306D030238DF828308DF829202C
:1022A000022292462278582A04D024A20DF1200955
:1022B0000B9209E026A2F9E7DDE90823FEF74AF8C8
:1022C0000B9B9B5C09F8013D50EA0102F4D1ADEB98
:1022D000090020300890680701D44FF001080899E0
:1022E000884503DD0898A8EB000000E00020804648
:1022F000002506E00AA85A46405D0F9990476D1CDC
:10230000761C5545F6DB04E030205A460F9990477D
:10231000761CB8F10001A8F10108F5DC05E019F818
:10232000010B5A460F999047761C0899481E089051
:102330000029F4DC641CC4E6092801003031323382
:1023400034353637383961626364656600000000F1
:1023500030313233343536373839414243444546DB
:102360000000000000684FF0FF3202EB4000491C03
:1023700008407047016000214160816070478168BA
:102380004068814201D10120704700207047D0E9A8
:10239000002180685140814201D101207047002016
:1023A000704700B503461846FFF7E9FF08B1002063
:1023B00000BD5968D868814203D11846FFF7D2FFA3
:1023C000D8601968D868491E084003EB800040694E
:1023D00000BD0268C1680023521E114000EB81015C
:1023E00049698B80C1684160704700B50346184653
:1023F000FFF7CDFF08B1002000BD99681869814240
:1024000003D11846FFF7AEFF186119681869491E15
:10241000084003EB8000406900BD0169816070479E
:1024200010B5064C20212046FFF754FD0028F9D0B6
:102430002046BDE81040FFF7EDBD00000010014050
:1024400070B50446064DE1B22846FFF7E7FD80214E
:102450002846FFF73FFD0028F9D0204670BD000058
:1024600000100140FEF71EFDFEF7D4FE00F008F854
:10247000FEF7C8F9FEF7AAFCFEF708FEFCE700002D
:102480002DE9F0410024124D002028606860A8600A
:10249000E860022105F11000FFF76CFF05F110065E
:1024A00005F12C07C4EB041007EB400045F834009D
:1024B00006EB840105EBC400486155F834001E2189
:1024C000FDF787FE641C022CECD3BDE8F081000010
:1024D00034000020DDDDDDDDDCBBBBDDDDDDDDDD91
:1024E000DDDDDDDD9888888888888888777777774C
:1024F0007788888885555556666666666666666618
:1025000066688888833333322222222222222222C2
:102510002228888D3C3C2D41533630382D494E467B
:102520004F2D3E3E202A2A2A2A2A2AC3FCC1EEA386
:10253000BAC7EBCAE4C8EBB4E6B4A24944A3ACB74B
:10254000B6CEA7CEAA30A1AA3233392A2A2A2A2AFD
:102550002A0D0A0A000000003C3C2D415336303859
:102560002D494E464F2D3E3E20202020C7EBCAE489
:10257000C8EBD6B8C1EEA3ACCAE4C8EBD6B8C1EE7E
:10258000BAF3C7EBD4DACAE4C8EBB4B0BFDAB0B47C
:10259000BBD8B3B5BCFCBAF3D4D9B7A2CBCDD6B8AF
:1025A000C1EEA3A1A3A1A3A10D0A0A003C3C2D41A9
:1025B000533630382D494E464F2D3E3E20D6B8CEAC
:1025C000C6CDBCCFF1D5FDB3A3A3ACB5ABCCD8D5AC
:1025D000F7B5E3CCABC9D9A3A8BBF2C3E6BBFDCC2E
:1025E000ABD0A1A3A9B6F8C9FAB2BBB3C9CCD8D5B0
:1025F000F70D0A0A0000000018260008000000205D
:1026000034000000842000084C260008340000201C
:102610006C04000094200008007A030A0000000007
:102620000000000001020304060708090000000082
:10263000010203040102030406070809FFFFFFFF6C
:0C2640000000000000000000000000008E
:040000050800018965
:00000001FF
